{
  "_format": "hh-sol-artifact-1",
  "contractName": "BlockRaise",
  "sourceName": "contracts/BlockRaise.sol",
  "abi": [
    {
      "inputs": [],
      "stateMutability": "nonpayable",
      "type": "constructor"
    },
    {
      "anonymous": false,
      "inputs": [
        {
          "indexed": true,
          "internalType": "uint256",
          "name": "campaignId",
          "type": "uint256"
        },
        {
          "indexed": false,
          "internalType": "address",
          "name": "owner",
          "type": "address"
        },
        {
          "indexed": false,
          "internalType": "string",
          "name": "title",
          "type": "string"
        },
        {
          "indexed": false,
          "internalType": "uint256",
          "name": "goal",
          "type": "uint256"
        }
      ],
      "name": "CampaignCreated",
      "type": "event"
    },
    {
      "anonymous": false,
      "inputs": [
        {
          "indexed": true,
          "internalType": "uint256",
          "name": "campaignId",
          "type": "uint256"
        },
        {
          "indexed": false,
          "internalType": "uint256",
          "name": "amount",
          "type": "uint256"
        },
        {
          "indexed": false,
          "internalType": "uint256",
          "name": "newTotal",
          "type": "uint256"
        }
      ],
      "name": "DonationReceived",
      "type": "event"
    },
    {
      "anonymous": false,
      "inputs": [
        {
          "indexed": true,
          "internalType": "uint256",
          "name": "campaignId",
          "type": "uint256"
        },
        {
          "indexed": false,
          "internalType": "uint256",
          "name": "amount",
          "type": "uint256"
        }
      ],
      "name": "FundsWithdrawn",
      "type": "event"
    },
    {
      "anonymous": false,
      "inputs": [
        {
          "indexed": true,
          "internalType": "address",
          "name": "previousOwner",
          "type": "address"
        },
        {
          "indexed": true,
          "internalType": "address",
          "name": "newOwner",
          "type": "address"
        }
      ],
      "name": "OwnershipTransferred",
      "type": "event"
    },
    {
      "inputs": [
        {
          "internalType": "uint256",
          "name": "",
          "type": "uint256"
        }
      ],
      "name": "campaigns",
      "outputs": [
        {
          "internalType": "address payable",
          "name": "owner",
          "type": "address"
        },
        {
          "internalType": "string",
          "name": "title",
          "type": "string"
        },
        {
          "internalType": "string",
          "name": "description",
          "type": "string"
        },
        {
          "internalType": "uint256",
          "name": "goal",
          "type": "uint256"
        },
        {
          "internalType": "uint256",
          "name": "funds",
          "type": "uint256"
        }
      ],
      "stateMutability": "view",
      "type": "function"
    },
    {
      "inputs": [
        {
          "internalType": "string",
          "name": "title",
          "type": "string"
        },
        {
          "internalType": "string",
          "name": "description",
          "type": "string"
        },
        {
          "internalType": "uint256",
          "name": "goal",
          "type": "uint256"
        }
      ],
      "name": "createCampaign",
      "outputs": [],
      "stateMutability": "nonpayable",
      "type": "function"
    },
    {
      "inputs": [
        {
          "internalType": "uint256",
          "name": "campaignIndex",
          "type": "uint256"
        }
      ],
      "name": "donate",
      "outputs": [],
      "stateMutability": "payable",
      "type": "function"
    },
    {
      "inputs": [],
      "name": "getCampaignCount",
      "outputs": [
        {
          "internalType": "uint256",
          "name": "",
          "type": "uint256"
        }
      ],
      "stateMutability": "view",
      "type": "function"
    },
    {
      "inputs": [],
      "name": "owner",
      "outputs": [
        {
          "internalType": "address",
          "name": "",
          "type": "address"
        }
      ],
      "stateMutability": "view",
      "type": "function"
    },
    {
      "inputs": [
        {
          "internalType": "address",
          "name": "newOwner",
          "type": "address"
        }
      ],
      "name": "transferOwnership",
      "outputs": [],
      "stateMutability": "nonpayable",
      "type": "function"
    },
    {
      "inputs": [
        {
          "internalType": "uint256",
          "name": "campaignIndex",
          "type": "uint256"
        }
      ],
      "name": "withdrawFunds",
      "outputs": [],
      "stateMutability": "nonpayable",
      "type": "function"
    }
  ],
  "bytecode": "0x608060405234801561001057600080fd5b50336000806101000a81548173ffffffffffffffffffffffffffffffffffffffff021916908373ffffffffffffffffffffffffffffffffffffffff1602179055506112db806100606000396000f3fe6080604052600436106100705760003560e01c80638da5cb5b1161004e5780638da5cb5b1461010a578063f14faf6f14610135578063f2fde38b14610151578063ffa56a571461017a57610070565b8063141961bc14610075578063155dd5ee146100b65780636caa9218146100df575b600080fd5b34801561008157600080fd5b5061009c60048036038101906100979190610b89565b6101a3565b6040516100ad959493929190610d05565b60405180910390f35b3480156100c257600080fd5b506100dd60048036038101906100d89190610b89565b610319565b005b3480156100eb57600080fd5b506100f46104f9565b6040516101019190610e64565b60405180910390f35b34801561011657600080fd5b5061011f610506565b60405161012c9190610cea565b60405180910390f35b61014f600480360381019061014a9190610b89565b61052a565b005b34801561015d57600080fd5b5061017860048036038101906101739190610ae1565b61065d565b005b34801561018657600080fd5b506101a1600480360381019061019c9190610b0a565b610818565b005b600181815481106101b357600080fd5b90600052602060002090600502016000915090508060000160009054906101000a900473ffffffffffffffffffffffffffffffffffffffff16908060010180546101fc90611034565b80601f016020809104026020016040519081016040528092919081815260200182805461022890611034565b80156102755780601f1061024a57610100808354040283529160200191610275565b820191906000526020600020905b81548152906001019060200180831161025857829003601f168201915b50505050509080600201805461028a90611034565b80601f01602080910402602001604051908101604052809291908181526020018280546102b690611034565b80156103035780601f106102d857610100808354040283529160200191610303565b820191906000526020600020905b8154815290600101906020018083116102e657829003601f168201915b5050505050908060030154908060040154905085565b6001805490508110610360576040517f08c379a000000000000000000000000000000000000000000000000000000000815260040161035790610da4565b60405180910390fd5b60006001828154811061039c577f4e487b7100000000000000000000000000000000000000000000000000000000600052603260045260246000fd5b906000526020600020906005020190508060000160009054906101000a900473ffffffffffffffffffffffffffffffffffffffff1673ffffffffffffffffffffffffffffffffffffffff163373ffffffffffffffffffffffffffffffffffffffff161461043e576040517f08c379a000000000000000000000000000000000000000000000000000000000815260040161043590610e44565b60405180910390fd5b6000816004015490508160000160009054906101000a900473ffffffffffffffffffffffffffffffffffffffff1673ffffffffffffffffffffffffffffffffffffffff166108fc829081150290604051600060405180830381858888f193505050501580156104b1573d6000803e3d6000fd5b5060008260040181905550827fd66662c0ded9e58fd31d5e44944bcfd07ffc15e6927ecc1382e7941cb7bd24c4826040516104ec9190610e64565b60405180910390a2505050565b6000600180549050905090565b60008054906101000a900473ffffffffffffffffffffffffffffffffffffffff1681565b6001805490508110610571576040517f08c379a000000000000000000000000000000000000000000000000000000000815260040161056890610da4565b60405180910390fd5b600034116105b4576040517f08c379a00000000000000000000000000000000000000000000000000000000081526004016105ab90610dc4565b60405180910390fd5b6000600182815481106105f0577f4e487b7100000000000000000000000000000000000000000000000000000000600052603260045260246000fd5b90600052602060002090600502019050348160040160008282546106149190610f1a565b92505081905550817f8a811f9b26fd857548fe3870975f8bebd10c2825d185d0e7e02154906a39c9c3348360040154604051610651929190610e7f565b60405180910390a25050565b60008054906101000a900473ffffffffffffffffffffffffffffffffffffffff1673ffffffffffffffffffffffffffffffffffffffff163373ffffffffffffffffffffffffffffffffffffffff16146106eb576040517f08c379a00000000000000000000000000000000000000000000000000000000081526004016106e290610de4565b60405180910390fd5b600073ffffffffffffffffffffffffffffffffffffffff168173ffffffffffffffffffffffffffffffffffffffff16141561075b576040517f08c379a000000000000000000000000000000000000000000000000000000000815260040161075290610e04565b60405180910390fd5b8073ffffffffffffffffffffffffffffffffffffffff1660008054906101000a900473ffffffffffffffffffffffffffffffffffffffff1673ffffffffffffffffffffffffffffffffffffffff167f8be0079c531659141344cd1fd0a4f28419497f9722a3daafe3b4186f6b6457e060405160405180910390a3806000806101000a81548173ffffffffffffffffffffffffffffffffffffffff021916908373ffffffffffffffffffffffffffffffffffffffff16021790555050565b6000811161085b576040517f08c379a000000000000000000000000000000000000000000000000000000000815260040161085290610e24565b60405180910390fd5b60016040518060a001604052803373ffffffffffffffffffffffffffffffffffffffff1681526020018581526020018481526020018381526020016000815250908060018154018082558091505060019003906000526020600020906005020160009091909190915060008201518160000160006101000a81548173ffffffffffffffffffffffffffffffffffffffff021916908373ffffffffffffffffffffffffffffffffffffffff16021790555060208201518160010190805190602001906109279291906109ac565b5060408201518160020190805190602001906109449291906109ac565b50606082015181600301556080820151816004015550506001808054905061096c9190610f70565b7f825fb10f7650ed27414d6f86acdf7d5946927d9b25001f045f1a2435deec02fe33858460405161099f93929190610d66565b60405180910390a2505050565b8280546109b890611034565b90600052602060002090601f0160209004810192826109da5760008555610a21565b82601f106109f357805160ff1916838001178555610a21565b82800160010185558215610a21579182015b82811115610a20578251825591602001919060010190610a05565b5b509050610a2e9190610a32565b5090565b5b80821115610a4b576000816000905550600101610a33565b5090565b6000610a62610a5d84610ecd565b610ea8565b905082815260208101848484011115610a7a57600080fd5b610a85848285610ff2565b509392505050565b600081359050610a9c81611277565b92915050565b600082601f830112610ab357600080fd5b8135610ac3848260208601610a4f565b91505092915050565b600081359050610adb8161128e565b92915050565b600060208284031215610af357600080fd5b6000610b0184828501610a8d565b91505092915050565b600080600060608486031215610b1f57600080fd5b600084013567ffffffffffffffff811115610b3957600080fd5b610b4586828701610aa2565b935050602084013567ffffffffffffffff811115610b6257600080fd5b610b6e86828701610aa2565b9250506040610b7f86828701610acc565b9150509250925092565b600060208284031215610b9b57600080fd5b6000610ba984828501610acc565b91505092915050565b610bbb81610fb6565b82525050565b610bca81610fa4565b82525050565b6000610bdb82610efe565b610be58185610f09565b9350610bf5818560208601611001565b610bfe81611124565b840191505092915050565b6000610c16601783610f09565b9150610c2182611135565b602082019050919050565b6000610c39601f83610f09565b9150610c448261115e565b602082019050919050565b6000610c5c602e83610f09565b9150610c6782611187565b604082019050919050565b6000610c7f601983610f09565b9150610c8a826111d6565b602082019050919050565b6000610ca2601b83610f09565b9150610cad826111ff565b602082019050919050565b6000610cc5602683610f09565b9150610cd082611228565b604082019050919050565b610ce481610fe8565b82525050565b6000602082019050610cff6000830184610bc1565b92915050565b600060a082019050610d1a6000830188610bb2565b8181036020830152610d2c8187610bd0565b90508181036040830152610d408186610bd0565b9050610d4f6060830185610cdb565b610d5c6080830184610cdb565b9695505050505050565b6000606082019050610d7b6000830186610bc1565b8181036020830152610d8d8185610bd0565b9050610d9c6040830184610cdb565b949350505050565b60006020820190508181036000830152610dbd81610c09565b9050919050565b60006020820190508181036000830152610ddd81610c2c565b9050919050565b60006020820190508181036000830152610dfd81610c4f565b9050919050565b60006020820190508181036000830152610e1d81610c72565b9050919050565b60006020820190508181036000830152610e3d81610c95565b9050919050565b60006020820190508181036000830152610e5d81610cb8565b9050919050565b6000602082019050610e796000830184610cdb565b92915050565b6000604082019050610e946000830185610cdb565b610ea16020830184610cdb565b9392505050565b6000610eb2610ec3565b9050610ebe8282611066565b919050565b6000604051905090565b600067ffffffffffffffff821115610ee857610ee76110f5565b5b610ef182611124565b9050602081019050919050565b600081519050919050565b600082825260208201905092915050565b6000610f2582610fe8565b9150610f3083610fe8565b9250827fffffffffffffffffffffffffffffffffffffffffffffffffffffffffffffffff03821115610f6557610f64611097565b5b828201905092915050565b6000610f7b82610fe8565b9150610f8683610fe8565b925082821015610f9957610f98611097565b5b828203905092915050565b6000610faf82610fc8565b9050919050565b6000610fc182610fc8565b9050919050565b600073ffffffffffffffffffffffffffffffffffffffff82169050919050565b6000819050919050565b82818337600083830152505050565b60005b8381101561101f578082015181840152602081019050611004565b8381111561102e576000848401525b50505050565b6000600282049050600182168061104c57607f821691505b602082108114156110605761105f6110c6565b5b50919050565b61106f82611124565b810181811067ffffffffffffffff8211171561108e5761108d6110f5565b5b80604052505050565b7f4e487b7100000000000000000000000000000000000000000000000000000000600052601160045260246000fd5b7f4e487b7100000000000000000000000000000000000000000000000000000000600052602260045260246000fd5b7f4e487b7100000000000000000000000000000000000000000000000000000000600052604160045260246000fd5b6000601f19601f8301169050919050565b7f43616d706169676e20646f6573206e6f74206578697374000000000000000000600082015250565b7f446f6e6174696f6e206d7573742062652067726561746572207468616e203000600082015250565b7f4f6e6c792074686520636f6e7472616374206f776e65722063616e2063616c6c60008201527f20746869732066756e6374696f6e000000000000000000000000000000000000602082015250565b7f496e76616c6964206e6577206f776e6572206164647265737300000000000000600082015250565b7f476f616c206d7573742062652067726561746572207468616e20300000000000600082015250565b7f4f6e6c792063616d706169676e206f776e65722063616e20776974686472617760008201527f2066756e64730000000000000000000000000000000000000000000000000000602082015250565b61128081610fa4565b811461128b57600080fd5b50565b61129781610fe8565b81146112a257600080fd5b5056fea2646970667358221220ba6657f78c4e1c1d387428814cab218c8ea9d439593e5468ffe2a99b0712cba964736f6c63430008040033",
  "linkReferences": {},
  "deployedLinkReferences": {}
}