{
  "_format": "hh-sol-artifact-1",
  "contractName": "BlockRaise",
  "sourceName": "contracts/BlockRaise.sol",
  "abi": [
    {
      "anonymous": false,
      "inputs": [
        {
          "indexed": true,
          "internalType": "uint256",
          "name": "campaignId",
          "type": "uint256"
        },
        {
          "indexed": false,
          "internalType": "address",
          "name": "owner",
          "type": "address"
        },
        {
          "indexed": false,
          "internalType": "string",
          "name": "title",
          "type": "string"
        },
        {
          "indexed": false,
          "internalType": "uint256",
          "name": "goal",
          "type": "uint256"
        }
      ],
      "name": "CampaignCreated",
      "type": "event"
    },
    {
      "anonymous": false,
      "inputs": [
        {
          "indexed": true,
          "internalType": "uint256",
          "name": "campaignId",
          "type": "uint256"
        },
        {
          "indexed": false,
          "internalType": "uint256",
          "name": "amount",
          "type": "uint256"
        },
        {
          "indexed": false,
          "internalType": "uint256",
          "name": "newTotal",
          "type": "uint256"
        }
      ],
      "name": "DonationReceived",
      "type": "event"
    },
    {
      "anonymous": false,
      "inputs": [
        {
          "indexed": true,
          "internalType": "uint256",
          "name": "campaignId",
          "type": "uint256"
        },
        {
          "indexed": false,
          "internalType": "uint256",
          "name": "amount",
          "type": "uint256"
        }
      ],
      "name": "FundsWithdrawn",
      "type": "event"
    },
    {
      "anonymous": false,
      "inputs": [
        {
          "indexed": true,
          "internalType": "uint256",
          "name": "campaignId",
          "type": "uint256"
        },
        {
          "indexed": true,
          "internalType": "address",
          "name": "previousOwner",
          "type": "address"
        },
        {
          "indexed": true,
          "internalType": "address",
          "name": "newOwner",
          "type": "address"
        }
      ],
      "name": "OwnershipTransferred",
      "type": "event"
    },
    {
      "inputs": [
        {
          "internalType": "uint256",
          "name": "",
          "type": "uint256"
        }
      ],
      "name": "campaigns",
      "outputs": [
        {
          "internalType": "address payable",
          "name": "owner",
          "type": "address"
        },
        {
          "internalType": "string",
          "name": "title",
          "type": "string"
        },
        {
          "internalType": "string",
          "name": "description",
          "type": "string"
        },
        {
          "internalType": "uint256",
          "name": "goal",
          "type": "uint256"
        },
        {
          "internalType": "uint256",
          "name": "funds",
          "type": "uint256"
        }
      ],
      "stateMutability": "view",
      "type": "function"
    },
    {
      "inputs": [
        {
          "internalType": "string",
          "name": "title",
          "type": "string"
        },
        {
          "internalType": "string",
          "name": "description",
          "type": "string"
        },
        {
          "internalType": "uint256",
          "name": "goal",
          "type": "uint256"
        }
      ],
      "name": "createCampaign",
      "outputs": [],
      "stateMutability": "nonpayable",
      "type": "function"
    },
    {
      "inputs": [
        {
          "internalType": "uint256",
          "name": "campaignIndex",
          "type": "uint256"
        }
      ],
      "name": "donate",
      "outputs": [],
      "stateMutability": "payable",
      "type": "function"
    },
    {
      "inputs": [],
      "name": "getCampaignCount",
      "outputs": [
        {
          "internalType": "uint256",
          "name": "",
          "type": "uint256"
        }
      ],
      "stateMutability": "view",
      "type": "function"
    },
    {
      "inputs": [
        {
          "internalType": "uint256",
          "name": "campaignIndex",
          "type": "uint256"
        },
        {
          "internalType": "address",
          "name": "newOwner",
          "type": "address"
        }
      ],
      "name": "transferOwnership",
      "outputs": [],
      "stateMutability": "nonpayable",
      "type": "function"
    },
    {
      "inputs": [
        {
          "internalType": "uint256",
          "name": "campaignIndex",
          "type": "uint256"
        }
      ],
      "name": "withdrawFunds",
      "outputs": [],
      "stateMutability": "nonpayable",
      "type": "function"
    }
  ],
  "bytecode": "0x608060405234801561001057600080fd5b5061130d806100206000396000f3fe6080604052600436106100555760003560e01c8063141961bc1461005a578063155dd5ee1461009b57806329507f73146100c45780636caa9218146100ed578063f14faf6f14610118578063ffa56a5714610134575b600080fd5b34801561006657600080fd5b50610081600480360381019061007c9190610b9a565b61015d565b604051610092959493929190610d37565b60405180910390f35b3480156100a757600080fd5b506100c260048036038101906100bd9190610b9a565b6102d3565b005b3480156100d057600080fd5b506100eb60048036038101906100e69190610bc3565b6104b2565b005b3480156100f957600080fd5b50610102610713565b60405161010f9190610e96565b60405180910390f35b610132600480360381019061012d9190610b9a565b61071f565b005b34801561014057600080fd5b5061015b60048036038101906101569190610b1b565b610851565b005b6000818154811061016d57600080fd5b90600052602060002090600502016000915090508060000160009054906101000a900473ffffffffffffffffffffffffffffffffffffffff16908060010180546101b690611066565b80601f01602080910402602001604051908101604052809291908181526020018280546101e290611066565b801561022f5780601f106102045761010080835404028352916020019161022f565b820191906000526020600020905b81548152906001019060200180831161021257829003601f168201915b50505050509080600201805461024490611066565b80601f016020809104026020016040519081016040528092919081815260200182805461027090611066565b80156102bd5780601f10610292576101008083540402835291602001916102bd565b820191906000526020600020905b8154815290600101906020018083116102a057829003601f168201915b5050505050908060030154908060040154905085565b600080549050811061031a576040517f08c379a000000000000000000000000000000000000000000000000000000000815260040161031190610dd6565b60405180910390fd5b6000808281548110610355577f4e487b7100000000000000000000000000000000000000000000000000000000600052603260045260246000fd5b906000526020600020906005020190508060000160009054906101000a900473ffffffffffffffffffffffffffffffffffffffff1673ffffffffffffffffffffffffffffffffffffffff163373ffffffffffffffffffffffffffffffffffffffff16146103f7576040517f08c379a00000000000000000000000000000000000000000000000000000000081526004016103ee90610e56565b60405180910390fd5b6000816004015490508160000160009054906101000a900473ffffffffffffffffffffffffffffffffffffffff1673ffffffffffffffffffffffffffffffffffffffff166108fc829081150290604051600060405180830381858888f1935050505015801561046a573d6000803e3d6000fd5b5060008260040181905550827fd66662c0ded9e58fd31d5e44944bcfd07ffc15e6927ecc1382e7941cb7bd24c4826040516104a59190610e96565b60405180910390a2505050565b60008054905082106104f9576040517f08c379a00000000000000000000000000000000000000000000000000000000081526004016104f090610dd6565b60405180910390fd5b6000808381548110610534577f4e487b7100000000000000000000000000000000000000000000000000000000600052603260045260246000fd5b906000526020600020906005020190508060000160009054906101000a900473ffffffffffffffffffffffffffffffffffffffff1673ffffffffffffffffffffffffffffffffffffffff163373ffffffffffffffffffffffffffffffffffffffff16146105d6576040517f08c379a00000000000000000000000000000000000000000000000000000000081526004016105cd90610e76565b60405180910390fd5b600073ffffffffffffffffffffffffffffffffffffffff168273ffffffffffffffffffffffffffffffffffffffff161415610646576040517f08c379a000000000000000000000000000000000000000000000000000000000815260040161063d90610e16565b60405180910390fd5b60008160000160009054906101000a900473ffffffffffffffffffffffffffffffffffffffff169050828260000160006101000a81548173ffffffffffffffffffffffffffffffffffffffff021916908373ffffffffffffffffffffffffffffffffffffffff1602179055508273ffffffffffffffffffffffffffffffffffffffff168173ffffffffffffffffffffffffffffffffffffffff16857f16b85f49bf01212961345d3016c9a531894accf62eb7680f2045d79185cc0ec060405160405180910390a450505050565b60008080549050905090565b6000805490508110610766576040517f08c379a000000000000000000000000000000000000000000000000000000000815260040161075d90610dd6565b60405180910390fd5b600034116107a9576040517f08c379a00000000000000000000000000000000000000000000000000000000081526004016107a090610df6565b60405180910390fd5b60008082815481106107e4577f4e487b7100000000000000000000000000000000000000000000000000000000600052603260045260246000fd5b90600052602060002090600502019050348160040160008282546108089190610f4c565b92505081905550817f8a811f9b26fd857548fe3870975f8bebd10c2825d185d0e7e02154906a39c9c3348360040154604051610845929190610eb1565b60405180910390a25050565b60008111610894576040517f08c379a000000000000000000000000000000000000000000000000000000000815260040161088b90610e36565b60405180910390fd5b60006040518060a001604052803373ffffffffffffffffffffffffffffffffffffffff1681526020018581526020018481526020018381526020016000815250908060018154018082558091505060019003906000526020600020906005020160009091909190915060008201518160000160006101000a81548173ffffffffffffffffffffffffffffffffffffffff021916908373ffffffffffffffffffffffffffffffffffffffff16021790555060208201518160010190805190602001906109609291906109e6565b50604082015181600201908051906020019061097d9291906109e6565b506060820151816003015560808201518160040155505060016000805490506109a69190610fa2565b7f825fb10f7650ed27414d6f86acdf7d5946927d9b25001f045f1a2435deec02fe3385846040516109d993929190610d98565b60405180910390a2505050565b8280546109f290611066565b90600052602060002090601f016020900481019282610a145760008555610a5b565b82601f10610a2d57805160ff1916838001178555610a5b565b82800160010185558215610a5b579182015b82811115610a5a578251825591602001919060010190610a3f565b5b509050610a689190610a6c565b5090565b5b80821115610a85576000816000905550600101610a6d565b5090565b6000610a9c610a9784610eff565b610eda565b905082815260208101848484011115610ab457600080fd5b610abf848285611024565b509392505050565b600081359050610ad6816112a9565b92915050565b600082601f830112610aed57600080fd5b8135610afd848260208601610a89565b91505092915050565b600081359050610b15816112c0565b92915050565b600080600060608486031215610b3057600080fd5b600084013567ffffffffffffffff811115610b4a57600080fd5b610b5686828701610adc565b935050602084013567ffffffffffffffff811115610b7357600080fd5b610b7f86828701610adc565b9250506040610b9086828701610b06565b9150509250925092565b600060208284031215610bac57600080fd5b6000610bba84828501610b06565b91505092915050565b60008060408385031215610bd657600080fd5b6000610be485828601610b06565b9250506020610bf585828601610ac7565b9150509250929050565b610c0881610fe8565b82525050565b610c1781610fd6565b82525050565b6000610c2882610f30565b610c328185610f3b565b9350610c42818560208601611033565b610c4b81611156565b840191505092915050565b6000610c63601783610f3b565b9150610c6e82611167565b602082019050919050565b6000610c86601f83610f3b565b9150610c9182611190565b602082019050919050565b6000610ca9601983610f3b565b9150610cb4826111b9565b602082019050919050565b6000610ccc601b83610f3b565b9150610cd7826111e2565b602082019050919050565b6000610cef602683610f3b565b9150610cfa8261120b565b604082019050919050565b6000610d12602a83610f3b565b9150610d1d8261125a565b604082019050919050565b610d318161101a565b82525050565b600060a082019050610d4c6000830188610bff565b8181036020830152610d5e8187610c1d565b90508181036040830152610d728186610c1d565b9050610d816060830185610d28565b610d8e6080830184610d28565b9695505050505050565b6000606082019050610dad6000830186610c0e565b8181036020830152610dbf8185610c1d565b9050610dce6040830184610d28565b949350505050565b60006020820190508181036000830152610def81610c56565b9050919050565b60006020820190508181036000830152610e0f81610c79565b9050919050565b60006020820190508181036000830152610e2f81610c9c565b9050919050565b60006020820190508181036000830152610e4f81610cbf565b9050919050565b60006020820190508181036000830152610e6f81610ce2565b9050919050565b60006020820190508181036000830152610e8f81610d05565b9050919050565b6000602082019050610eab6000830184610d28565b92915050565b6000604082019050610ec66000830185610d28565b610ed36020830184610d28565b9392505050565b6000610ee4610ef5565b9050610ef08282611098565b919050565b6000604051905090565b600067ffffffffffffffff821115610f1a57610f19611127565b5b610f2382611156565b9050602081019050919050565b600081519050919050565b600082825260208201905092915050565b6000610f578261101a565b9150610f628361101a565b9250827fffffffffffffffffffffffffffffffffffffffffffffffffffffffffffffffff03821115610f9757610f966110c9565b5b828201905092915050565b6000610fad8261101a565b9150610fb88361101a565b925082821015610fcb57610fca6110c9565b5b828203905092915050565b6000610fe182610ffa565b9050919050565b6000610ff382610ffa565b9050919050565b600073ffffffffffffffffffffffffffffffffffffffff82169050919050565b6000819050919050565b82818337600083830152505050565b60005b83811015611051578082015181840152602081019050611036565b83811115611060576000848401525b50505050565b6000600282049050600182168061107e57607f821691505b60208210811415611092576110916110f8565b5b50919050565b6110a182611156565b810181811067ffffffffffffffff821117156110c0576110bf611127565b5b80604052505050565b7f4e487b7100000000000000000000000000000000000000000000000000000000600052601160045260246000fd5b7f4e487b7100000000000000000000000000000000000000000000000000000000600052602260045260246000fd5b7f4e487b7100000000000000000000000000000000000000000000000000000000600052604160045260246000fd5b6000601f19601f8301169050919050565b7f43616d706169676e20646f6573206e6f74206578697374000000000000000000600082015250565b7f446f6e6174696f6e206d7573742062652067726561746572207468616e203000600082015250565b7f496e76616c6964206e6577206f776e6572206164647265737300000000000000600082015250565b7f476f616c206d7573742062652067726561746572207468616e20300000000000600082015250565b7f4f6e6c792063616d706169676e206f776e65722063616e20776974686472617760008201527f2066756e64730000000000000000000000000000000000000000000000000000602082015250565b7f4f6e6c792063616d706169676e206f776e65722063616e207472616e7366657260008201527f206f776e65727368697000000000000000000000000000000000000000000000602082015250565b6112b281610fd6565b81146112bd57600080fd5b50565b6112c98161101a565b81146112d457600080fd5b5056fea2646970667358221220a65a6823931cab1602ac962d0d0b0c2013f389f0d8e879e891b70d9ff96d26d264736f6c63430008040033",
  "linkReferences": {},
  "deployedLinkReferences": {}
}